:020000040800F2
:10000000582000209D080008CB070008CD070008F5
:10001000CF070008D1070008D30700080000000040
:10002000000000000000000000000000D5070008EC
:10003000D707000800000000D9070008DB07000808
:10004000AD080008B1080008B5080008B9080008A4
:10005000BD080008C1080008C5080008C908000854
:10006000CD080008D1080008D5080008D908000804
:10007000DD080008E1080008E5080008E9080008B4
:10008000ED080008F1080008F5080008F908000864
:10009000FD08000801090008050900080909000811
:1000A0000D090008110900081509000819090008C0
:1000B0001D09000821090008250900082909000870
:1000C0002D09000831090008350900083909000820
:1000D0003D090008410900083D07000845090008DE
:1000E000490900084D090008510900085509000890
:1000F000590900085D090008610900086509000840
:10010000690900086D0900087109000875090008EF
:10011000790900087D0900088109000867020008C4
:1001200085090008890900088D090008910900085F
:1001300095090008990900089D090008A10900080F
:10014000A5090008A9090008AD090008B1090008BF
:10015000B5090008B9090008BD090008C10900086F
:10016000C5090008C9090008CD090008D10900081F
:10017000D5090008D9090008DD090008E1090008CF
:10018000E5090008E909000881B00021009144F266
:10019000A0114843009002E00098401E0090009893
:1001A0000028F9D101B070472DE9F04705004FF460
:1001B0007A7095FBF0F44FF47A7095FBF0F100FB48
:1001C0001155642095FBF0F6642095FBF0F100FBDF
:1001D00011550A2095FBF0F70A2095FBF0F100FB82
:1001E00011555FF0000839E0DFF86491DFF864A191
:1001F0002000C0B21AF8001051F4606189B248467C
:1002000000F0F8F80120FFF7BFFF3000C0B21AF885
:10021000001051F4506189B2484600F0EBF801201B
:10022000FFF7B2FF3800C0B21AF8001051F4306185
:1002300089B2484600F0DEF80120FFF7A5FF28004C
:10024000C0B21AF8001051F4E06189B2484600F0DB
:10025000D1F80120FFF798FF18F10108B8F11E0F3F
:10026000C2DBBDE8F08710B53B4C0121200000F057
:1002700027F900280BD00121200000F033F937487E
:100280000168491C01600121354800F0B6F810BD35
:1002900038B586B00121062000F028F90121202080
:1002A00000F032F901208DF8080000208DF80A00D6
:1002B00003208DF8090000208DF80B0040F6FF7038
:1002C000019001A9224800F04DF803200190244C30
:1002D00001A9200000F046F84FF4A06000F026F9D4
:1002E00037208DF8000001208DF8010001208DF8E5
:1002F000020001208DF80300684600F01CF94AF264
:100300000F40ADF80C0040F2CF7004900020ADF823
:1003100014000020ADF80E000F4D03A9280000F0D6
:1003200071F80121280000F0DDF8012201212800E8
:1003300000F0BAF80121280000F099F8032120000C
:1003400000F058F805480068FFF72EFFFAE70000B4
:1003500000080240000000200014004014000020AB
:1003600000040240F0B400220022002200233DE0FD
:10037000012414FA03F20D681540954235D1032586
:1003800002685E0015FA06F6B243026006680F794D
:100390005A0097403E4306600A79012A02D00A7942
:1003A000022A16D182685E0015FA06F6B243826010
:1003B00086684F795A0097403E43866042689C4069
:1003C00032EA0404446042688C799C40A4B222431F
:1003D0004260C4685A00954034EA0505C560C468A7
:1003E000CD795A0095402C43C4605B1C102BBFD3C1
:1003F000F0BC704789B241617047426989B251408F
:100400004161704710B400220488204B98420ED0FE
:10041000244A90420BD0B0F1804F08D01C4A904241
:1004200005D01C4A904202D01B4A904204D14FF69C
:100430008F7214404A881443184A904207D0184AD1
:10044000904204D04FF6FF4214400A8914430480BE
:100450004A68C2620A880285984202D0114A9042D4
:1004600001D1897A01860121818210BC7047C9B20D
:10047000002904D0018851F00101018004E00288C4
:100480004FF6FE710A4002807047000000000140F4
:100490000004004000080040000C00400010004034
:1004A0000014004000040140D2B2002A03D0828927
:1004B0001143818103E0828932EA01018181704721
:1004C000002200220022028A0A408089014092B262
:1004D000002A04D089B2002901D0012000E00020C8
:1004E000C0B2704789B2C94301827047C9B20029BE
:1004F00004D00C490A681043086004E009490A68FE
:1005000032EA000008607047C9B2002904D00649E9
:100510000A681043086004E003490A6832EA0000F0
:100520000860704730380240403802401A4908439A
:100530001A4908607047002100210F23C178002963
:100540001FD01649096811F4E061D1F5E061090A8C
:10055000D1F10402DBB20B41417811FA02F2817849
:100560000B401A4312010E490378CA540121027844
:1005700012F01F0291400B4A0078401142F82010FF
:1005800009E00121027812F01F029140064A00782A
:10059000401142F8201070470000FA050CED00E011
:1005A00000E400E000E100E080E100E080B53C48CC
:1005B000016851F4700101603A49086850F0010087
:1005C00008600020384A10600A68384802400A6013
:1005D0003748384A1060086830F4802008600020EE
:1005E0003549086000F005F85FF0006033490860A5
:1005F00001BD82B0002001900020009029490868C8
:1006000050F480300860086810F4003000900198C1
:10061000401C01900098002803D10198B0F5A04F2C
:10062000F1D10868800302D50120009001E000208C
:100630000090009801282FD12148026852F0805282
:1006400002602048026852F4404202601648026884
:100650000260026852F400420260026852F4A05242
:100660000260194A134B1A600A6852F080720A60DD
:100670000A689201FCD540F20571144A11600168C4
:10068000890889000160016851F002010160016878
:1006900011F00C010829FAD102B0704700000000E7
:1006A00088ED00E00038024008380240FFFFF6FE07
:1006B00010300024043802400C38024008ED00E0FD
:1006C000403802400070004008544007003C02409F
:1006D0008088C005C00D704710B40022002200229F
:1006E00000220A0040F66A1392B29A420B00DBB273
:1006F0005B09DBB20A0092B212F01F02012414FA65
:1007000002F2012B02D183891A4006E0022B02D1AA
:10071000038A1A4001E0838A1A4089B2090A89B221
:1007200014FA01F100880140002A03D0002901D009
:10073000012000E00020C0B210BC704710B5104C82
:1007400040F225512000FFF7C7FF002816D02000F7
:10075000FFF7BEFF0B490C4A0B68D0540868105CC9
:100760000D2808D100200B68D0540120074A1070D2
:100770000020086002E00868401C086010BD00000E
:10078000004400404C0000201800002050000020D1
:1007900030B5016884684218416802EB5103C9070B
:1007A00003D54C4401E0491C08D19A4218BF12F904
:1007B000011B01D10C3030BD12F8015B002904F897
:1007C000015BF0D4491EF7D5EFE77047FEE7FEE77F
:1007D000FEE7FEE7704770477047704710B507495E
:1007E00079441831064C7C44163404E00A68081D2C
:1007F000114488470146A142F8D110BD2C000000E9
:10080000380000004EF68851CEF20001086840F42E
:1008100070000860BFF34F8FBFF36F8F4FF0017010
:10082000E1EE100A7047000069FFFFFFC001000001
:100830002A0000000000002000F00DF8002801D080
:10084000FFF7CCFFAFF300800020AFF30080FFF78D
:100850001FFD00F002F80120704700F001B8000011
:100860000746384600F002F8FBE7000080B5AFF31A
:100870000080024A11001820ABBEFBE726000200F0
:100880000548014603B4684680F30988AFF3008049
:10089000FFF7B8FFFFF7D0FFA5EDF5FE0148804751
:1008A00001480047AD05000881080008FFF7FEBFBA
:1008B000FFF7FEBFFFF7FEBFFFF7FEBFFFF7FEBF6C
:1008C000FFF7FEBFFFF7FEBFFFF7FEBFFFF7FEBF5C
:1008D000FFF7FEBFFFF7FEBFFFF7FEBFFFF7FEBF4C
:1008E000FFF7FEBFFFF7FEBFFFF7FEBFFFF7FEBF3C
:1008F000FFF7FEBFFFF7FEBFFFF7FEBFFFF7FEBF2C
:10090000FFF7FEBFFFF7FEBFFFF7FEBFFFF7FEBF1B
:10091000FFF7FEBFFFF7FEBFFFF7FEBFFFF7FEBF0B
:10092000FFF7FEBFFFF7FEBFFFF7FEBFFFF7FEBFFB
:10093000FFF7FEBFFFF7FEBFFFF7FEBFFFF7FEBFEB
:10094000FFF7FEBFFFF7FEBFFFF7FEBFFFF7FEBFDB
:10095000FFF7FEBFFFF7FEBFFFF7FEBFFFF7FEBFCB
:10096000FFF7FEBFFFF7FEBFFFF7FEBFFFF7FEBFBB
:10097000FFF7FEBFFFF7FEBFFFF7FEBFFFF7FEBFAB
:10098000FFF7FEBFFFF7FEBFFFF7FEBFFFF7FEBF9B
:10099000FFF7FEBFFFF7FEBFFFF7FEBFFFF7FEBF8B
:1009A000FFF7FEBFFFF7FEBFFFF7FEBFFFF7FEBF7B
:1009B000FFF7FEBFFFF7FEBFFFF7FEBFFFF7FEBF6B
:1009C000FFF7FEBFFFF7FEBFFFF7FEBFFFF7FEBF5B
:1009D000FFF7FEBFFFF7FEBFFFF7FEBFFFF7FEBF4B
:1009E000FFF7FEBFFFF7FEBFFFF7FEBF113F065B3D
:1009F0004F666D7C077F67777C395E79710880C1AF
:010A000000F5
:040000050800088166
:00000001FF
