:020000040800F2
:1000000098200020590A00085F09000861090008CB
:10001000630900086509000867090008000000007E
:100020000000000000000000000000006909000856
:100030006B090008000000006D0900086F09000846
:10004000690A00086D0A0008710A0008750A0008AC
:10005000790A00087D0A0008810A0008850A00085C
:10006000890A00088D0A0008910A0008950A00080C
:10007000990A00089D0A0008A10A0008A50A0008BC
:10008000A90A0008AD0A0008B10A0008B50A00086C
:10009000B90A0008BD0A0008C10A0008C50A00081C
:1000A000C90A0008CD0A0008D10A0008D50A0008CC
:1000B000D90A0008DD0A0008E10A0008E50A00087C
:1000C000E90A0008ED0A0008F10A0008F50A00082C
:1000D000F90A0008FD0A000855080008010B00088D
:1000E00085050008050B0008090B00080D0B00082A
:1000F000110B0008150B0008190B00081D0B000858
:10010000210B0008250B0008290B00082D0B000807
:10011000A9080008310B0008350B0008390B00084E
:100120003D0B0008410B0008450B0008490B000877
:100130004D0B0008510B0008550B0008590B000827
:100140005D0B0008610B0008650B0008690B0008D7
:100150006D0B0008710B0008750B0008790B000887
:100160007D0B0008810B0008850B0008890B000837
:100170008D0B0008910B0008950B0008990B0008E7
:100180009D0B0008A10B0008E0B50121042000F040
:10019000A9F801208DF8040000208DF80600032046
:1001A0008DF8050000208DF8070040F6FF700090E4
:1001B0006946494800F0B6F807BD81B000210091BA
:1001C00044F2A0114843009002E00098401E0090C5
:1001D00000980028F9D101B0704770B506000C00F6
:1001E0003E480068002828D03B4D280000F0E2F887
:1001F00050F47060010089B2280000F0DEF8280099
:1002000000F0D8F84FF4807111FA06F630EA0606CD
:10021000310089B2280000F0D0F8280000F0CAF8B8
:1002200010F47F402E49095D0843010089B228007F
:1002300000F0C3F80120FFF7C0FF70BD38B50028FB
:100240000CD44FF47A7190FBF1F18DF800104FF45B
:100250007A7190FBF1F201FB120009E012218DF896
:10026000001040424FF47A7190FBF1F201FB120052
:100270006C46642190FBF1F16170642190FBF1F216
:1002800001FB12000A2190FBF1F18DF802100A2106
:1002900090FBF1F201FB12008DF80300002504E051
:1002A000615D2800FFF799FF6D1C042DF8DB31BD5F
:1002B00010B50A480168C9430160006800280AD1E6
:1002C000054C200000F076F850F47060010089B20F
:1002D000200000F072F810BD000802407C000020F1
:1002E00000000020C9B2002904D00C490A6810435C
:1002F000086004E009490A6832EA000008607047B3
:10030000C9B2002904D006490A681043086004E015
:1003100003490A6832EA000008607047303802403A
:1003200044380240F0B400220022002200233DE0C5
:10033000012414FA03F20D681540954235D10325C6
:1003400002685E0015FA06F6B243026006680F798D
:100350005A0097403E4306600A79012A02D00A7982
:10036000022A16D182685E0015FA06F6B243826050
:1003700086684F795A0097403E43866042689C40A9
:1003800032EA0404446042688C799C40A4B222435F
:100390004260C4685A00954034EA0505C560C468E7
:1003A000CD795A0095402C43C4605B1C102BBFD301
:1003B000F0BC7047006980B2704789B241617047F4
:1003C00080B53C48016851F4700101603A49086801
:1003D00050F0010008600020384A10600A68384870
:1003E00002400A603748384A1060086830F48020BC
:1003F000086000203549086000F005F85FF00060F3
:100400003349086001BD82B00020019000200090B7
:100410002949086850F480300860086810F40030FA
:1004200000900198401C01900098002803D1019889
:10043000B0F5A04FF1D10868800302D501200090EB
:1004400001E000200090009801282FD12148026887
:1004500052F0805202602048026852F4404202602A
:10046000164802680260026852F4004202600268A4
:1004700052F4A0520260194A134B1A600A6852F0F3
:1004800080720A600A689201FCD540F20571144A34
:1004900011600168890889000160016851F002015A
:1004A0000160016811F00C010829FAD102B070470F
:1004B0000000000088ED00E00038024008380240EB
:1004C000FFFFF6FE10300024043802400C380240D2
:1004D00008ED00E04038024000700040085440073A
:1004E000003C024018B585B001210420FFF7FAFE58
:1004F00001214FF48040FFF703FF00208DF8080032
:1005000000208DF80A0003208DF8090000208DF8E6
:100510000B004FF47044019401A93548FFF702FF26
:100520000C21022000F068F80D21022000F064F890
:100530000E21022000F060F80F21022000F05CF88C
:10054000039400208DF8100008208DF81100012080
:100550008DF8120003A800F077F84FF4A06000F0C7
:10056000C7F828208DF8000001208DF80100012037
:100570008DF8020001208DF80300684600F0BDF8F8
:1005800006B010BD80B54FF4805000F099F80028F7
:1005900006D00120174908604FF4805000F09AF807
:1005A0004FF4005000F08CF8002806D002201149CA
:1005B00008604FF4005000F08DF84FF4804000F0D8
:1005C0007FF8002806D003200A4908604FF48040D5
:1005D00000F080F84FF4004000F072F8002806D0D8
:1005E0000420044908604FF4004000F073F801BD96
:1005F000000802408000002010B400220F238A006F
:1006000012F00C0213FA02F20E4B0C00E4B234F0BA
:1006100003041C5934EA02020C00E4B234F003046F
:100620001A510A00D2B232F003029A58C0B28C00BA
:1006300014F00C04A0401043C9B231F0030158502B
:1006400010BC70470838014030B40021234A130021
:10065000817900292CD0214C256801688D432560C3
:100660001F4C256801688D43256001795B181C6863
:1006700001680C431C601B4B1C6801688C431C60A8
:10068000194C256801688D4325604179102908D1EE
:100690001A6801680A431A602168006801432160F2
:1006A0000CE0417951180A68006802430A6005E0CD
:1006B000017959180A68006882430A6030BC7047A3
:1006C00000210A490968014201D0012000E0002010
:1006D000C0B270470549086070470000003C014007
:1006E000043C0140083C01400C3C0140143C0140EA
:1006F0001A4908431A4908607047002100210F2356
:10070000C17800291FD01649096811F4E061D1F5BC
:10071000E061090AD1F10402DBB20B41417811FA20
:1007200002F281780B401A4312010E490378CA5431
:100730000121027812F01F0291400B4A007840110B
:1007400042F8201009E00121027812F01F029140C6
:10075000064A0078401142F8201070470000FA0560
:100760000CED00E000E400E000E100E080E100E0EA
:1007700038B5FFF709FDFFF7B5FE0CE00020FFF7E5
:1007800097FD0020206001E000202060002028600C
:100790002068FFF753FD114C206842F21071884227
:1007A00003DA20680E49884201DA002020600D4DEE
:1007B00028680028ECD02868012806D0E6D3032852
:1007C000E2D006D30428D9D0E0E72068401C20609E
:1007D000DCE72068401E2060D8E700BF84000020CE
:1007E00019FCFFFF800000208088C005C00D704705
:1007F00010B400220022002200220A0040F66A13F0
:1008000092B29A420B00DBB25B09DBB20A0092B2F1
:1008100012F01F02012414FA02F2012B02D1838983
:100820001A4006E0022B02D1038A1A4001E0838AB3
:100830001A4089B2090A89B214FA01F1008801400C
:10084000002A03D0002901D0012000E00020C0B21E
:1008500010BC704710B5104C40F225512000FFF736
:10086000C7FF002816D02000FFF7BEFF0B490C4A37
:100870000B68D0540868105C0D2808D100200B6864
:10088000D0540120074A10700020086002E0086878
:10089000401C086010BD000000440040880000209B
:1008A000140000209000002010B5104C40F225519B
:1008B0002000FFF79DFF002816D02000FFF794FFCF
:1008C0000B490C4A0B68D0540868105C0D2808D1FD
:1008D00000200B68D0540120074A107000200860E7
:1008E00002E00868401C086010BD0000004C004099
:1008F0008C000020480000209100002030B400252A
:1009000012E050F8042BD30744BF4A44521E091F7B
:10091000042942F8045BFAD213468C0744BF1580C1
:100920009B1CC90748BF1D7050F8041B0029E8D163
:1009300030BC70470EE002684368024408305FEA4A
:10094000C37C44BF4B445B1E52F804CB43F804CB3A
:10095000091FF9D150F8041B0029ECD170477047EA
:10096000FEE7FEE7FEE7FEE7704770477047704717
:1009700010B5074979441831064C7C44163404E01C
:100980000A68081D114488470146A142F8D110BDEC
:100990002C0000004C0000004EF68851CEF2000101
:1009A000086840F470000860BFF34F8FBFF36F8F8B
:1009B0004FF00170E1EE100A7047000041FFFFFFA9
:1009C00080000000140000200000000069FFFFFF0D
:1009D0001400000070000000000000200000000073
:1009E00000F00DF8002801D0FFF7C2FFAFF3008040
:1009F0000020AFF30080FFF7BBFE00F002F80120FB
:100A0000704700F001B800000746384600F002F8D1
:100A1000FBE7000080B5AFF30080024A1100182008
:100A2000ABBEFBE7260002000548014603B468465A
:100A300080F30988AFF30080FFF7AEFFFFF7D0FF28
:100A4000A5EDF5FE3F065B4F666D7C077F67777C03
:100A5000395E7971088040000148804701480047AD
:100A6000C1030008290A0008FFF7FEBFFFF7FEBF19
:100A7000FFF7FEBFFFF7FEBFFFF7FEBFFFF7FEBFAA
:100A8000FFF7FEBFFFF7FEBFFFF7FEBFFFF7FEBF9A
:100A9000FFF7FEBFFFF7FEBFFFF7FEBFFFF7FEBF8A
:100AA000FFF7FEBFFFF7FEBFFFF7FEBFFFF7FEBF7A
:100AB000FFF7FEBFFFF7FEBFFFF7FEBFFFF7FEBF6A
:100AC000FFF7FEBFFFF7FEBFFFF7FEBFFFF7FEBF5A
:100AD000FFF7FEBFFFF7FEBFFFF7FEBFFFF7FEBF4A
:100AE000FFF7FEBFFFF7FEBFFFF7FEBFFFF7FEBF3A
:100AF000FFF7FEBFFFF7FEBFFFF7FEBFFFF7FEBF2A
:100B0000FFF7FEBFFFF7FEBFFFF7FEBFFFF7FEBF19
:100B1000FFF7FEBFFFF7FEBFFFF7FEBFFFF7FEBF09
:100B2000FFF7FEBFFFF7FEBFFFF7FEBFFFF7FEBFF9
:100B3000FFF7FEBFFFF7FEBFFFF7FEBFFFF7FEBFE9
:100B4000FFF7FEBFFFF7FEBFFFF7FEBFFFF7FEBFD9
:100B5000FFF7FEBFFFF7FEBFFFF7FEBFFFF7FEBFC9
:100B6000FFF7FEBFFFF7FEBFFFF7FEBFFFF7FEBFB9
:100B7000FFF7FEBFFFF7FEBFFFF7FEBFFFF7FEBFA9
:100B8000FFF7FEBFFFF7FEBFFFF7FEBFFFF7FEBF99
:100B9000FFF7FEBFFFF7FEBFFFF7FEBFFFF7FEBF89
:040BA000FFF7FEBF9E
:0400000508000A29BC
:00000001FF
