:020000040800F2
:100000000020002049030008CF020008D1020008A8
:10001000D3020008D5020008D70200080000000043
:10002000000000000000000000000000D9020008ED
:10003000DB02000800000000DD020008DF0200080B
:10004000590300085D030008610300086503000808
:10005000690300086D0300087103000875030008B8
:10006000790300087D030008810300088503000868
:10007000890300088D030008910300089503000818
:10008000990300089D030008A1030008A5030008C8
:10009000A9030008AD030008B1030008B503000878
:1000A000B9030008BD030008C1030008C503000828
:1000B000C9030008CD030008D1030008D5030008D8
:1000C000D9030008DD030008E1030008E503000888
:1000D000E9030008ED030008F1030008F503000838
:1000E000F9030008FD0300080104000805040008E6
:1000F000090400080D040008110400081504000894
:10010000190400081D040008210400082504000843
:10011000290400082D0400083104000835040008F3
:10012000390400083D0400084104000845040008A3
:10013000490400084D040008510400085504000853
:10014000590400085D040008610400086504000803
:10015000690400086D0400087104000875040008B3
:10016000790400087D040008810400088504000863
:10017000890400088D040008910400089504000813
:10018000990400089D04000880B53C48016851F4BA
:10019000700101603A49086850F0010008600020D1
:1001A000384A10600A68384802400A603748384ABE
:1001B0001060086830F4802008600020354908602D
:1001C00000F005F85FF000603349086001BD82B0BF
:1001D00000200190002000902949086850F48030E8
:1001E0000860086810F4003000900198401C0190ED
:1001F0000098002803D10198B0F5A04FF1D108680C
:10020000800302D50120009001E0002000900098BA
:1002100001282FD12148026852F080520260204804
:10022000026852F4404202601648026802600268A6
:1002300052F400420260026852F4A0520260194A6D
:10024000134B1A600A6852F080720A600A689201C1
:10025000FCD540F20571144A1160016889088900D3
:100260000160016851F002010160016811F00C01A8
:100270000829FAD102B070470000000088ED00E0C4
:100280000038024008380240FFFFF6FE103000241C
:10029000043802400C38024008ED00E040380240CB
:1002A0000070004008544007003C02404EF6885160
:1002B000CEF20001086840F470000860BFF34F8F71
:1002C000BFF36F8F4FF00170E1EE100A7047704777
:1002D000FEE7FEE7FEE7FEE77047704770477047AE
:1002E00000F00DF8002801D0AFF30080AFF30080DC
:1002F0000020AFF3008000F004F800F004F80120C3
:1003000070470020704700F001B8000007463846EB
:1003100000F002F8FBE7000080B5AFF30080024A6E
:1003200011001820ABBEFBE726000200054801467D
:1003300003B4684680F30988AFF30080FFF7B6FF87
:10034000FFF7CEFFA5EDF5FE0148804701480047C5
:10035000890100082D030008FFF7FEBFFFF7FEBF6D
:10036000FFF7FEBFFFF7FEBFFFF7FEBFFFF7FEBFC1
:10037000FFF7FEBFFFF7FEBFFFF7FEBFFFF7FEBFB1
:10038000FFF7FEBFFFF7FEBFFFF7FEBFFFF7FEBFA1
:10039000FFF7FEBFFFF7FEBFFFF7FEBFFFF7FEBF91
:1003A000FFF7FEBFFFF7FEBFFFF7FEBFFFF7FEBF81
:1003B000FFF7FEBFFFF7FEBFFFF7FEBFFFF7FEBF71
:1003C000FFF7FEBFFFF7FEBFFFF7FEBFFFF7FEBF61
:1003D000FFF7FEBFFFF7FEBFFFF7FEBFFFF7FEBF51
:1003E000FFF7FEBFFFF7FEBFFFF7FEBFFFF7FEBF41
:1003F000FFF7FEBFFFF7FEBFFFF7FEBFFFF7FEBF31
:10040000FFF7FEBFFFF7FEBFFFF7FEBFFFF7FEBF20
:10041000FFF7FEBFFFF7FEBFFFF7FEBFFFF7FEBF10
:10042000FFF7FEBFFFF7FEBFFFF7FEBFFFF7FEBF00
:10043000FFF7FEBFFFF7FEBFFFF7FEBFFFF7FEBFF0
:10044000FFF7FEBFFFF7FEBFFFF7FEBFFFF7FEBFE0
:10045000FFF7FEBFFFF7FEBFFFF7FEBFFFF7FEBFD0
:10046000FFF7FEBFFFF7FEBFFFF7FEBFFFF7FEBFC0
:10047000FFF7FEBFFFF7FEBFFFF7FEBFFFF7FEBFB0
:10048000FFF7FEBFFFF7FEBFFFF7FEBFFFF7FEBFA0
:10049000FFF7FEBFFFF7FEBFFFF7FEBFFFF7FEBF90
:040000050800032DBF
:00000001FF
