:020000040800F2
:100000005820002019090008A1080008A3080008CA
:10001000A5080008A7080008A908000800000000BB
:10002000000000000000000000000000AB08000815
:10003000AD08000800000000AF080008B108000883
:10004000290900082D0900083109000835090008B0
:10005000390900083D090008410900084509000860
:10006000490900084D090008510900085509000810
:10007000590900085D0900086109000865090008C0
:10008000690900086D090008710900087509000870
:10009000790900087D090008810900088509000820
:1000A00067020008890900088D0900089109000805
:1000B00095090008990900089D090008A109000890
:1000C000A5090008A9090008AD090008B109000840
:1000D000B5090008B9090008F1070008BD090008C2
:1000E000C1090008C5090008C9090008CD090008B0
:1000F000D1090008D5090008D9090008DD09000860
:10010000E1090008E5090008E9090008ED0900080F
:10011000F1090008F5090008F9090008FD090008BF
:10012000010A0008050A0008090A00080D0A00086B
:10013000110A0008150A0008190A00081D0A00081B
:10014000210A0008250A0008290A00082D0A0008CB
:10015000310A0008350A0008390A00083D0A00087B
:10016000410A0008450A0008490A00084D0A00082B
:10017000510A0008550A0008590A00085D0A0008DB
:10018000610A0008650A000881B00021009144F26C
:10019000A0114843009002E00098401E0090009893
:1001A0000028F9D101B070472DE9F04705004FF460
:1001B0007A7095FBF0F44FF47A7095FBF0F100FB48
:1001C0001155642095FBF0F6642095FBF0F100FBDF
:1001D00011550A2095FBF0F70A2095FBF0F100FB82
:1001E00011555FF0000839E0DFF87091DFF870A179
:1001F0002000C0B21AF8001051F4606189B248467C
:1002000000F0FEF80120FFF7BFFF3000C0B21AF87F
:10021000001051F4506189B2484600F0F1F8012015
:10022000FFF7B2FF3800C0B21AF8001051F4306185
:1002300089B2484600F0E4F80120FFF7A5FF280046
:10024000C0B21AF8001051F4E06189B2484600F0DB
:10025000D7F80120FFF798FF18F10108B8F11E0F39
:10026000C2DBBDE8F08710B53E4C0221200000F053
:1002700081F9002810D00221200000F08DF93A48C1
:100280000168491C01600168642905DB00210160E7
:1002900036480168491C016010BD18B58BB00121BA
:1002A000042000F07DF901215FF4803000F086F930
:1002B00001208DF8080000208DF80A0003208DF839
:1002C000090000208DF80B0040F6FF70019001A995
:1002D000224800F04DF84FF4A06000F081F918209A
:1002E0008DF8000001208DF8010001208DF802003A
:1002F00001208DF80300684600F077F9A720ADF8DB
:100300000C0042F20F7004900020ADF814000020A1
:10031000ADF80E00134C03A9200000F091F8302036
:10032000ADF818000120ADF81A0041F288300890AD
:1003300006A9200000F0C7F80221200000F02CF9E7
:1003400001220221200000F009F90121200000F023
:10035000ACF806480068FFF727FFFAE700080240FC
:100360000000002000400140140000201800002080
:10037000F0B400220022002200233DE0012414FA00
:1003800003F20D681540954235D1032502685E00E1
:1003900015FA06F6B243026006680F795A009740D4
:1003A0003E4306600A79012A02D00A79022A16D150
:1003B00082685E0015FA06F6B243826086684F795D
:1003C0005A0097403E43866042689C4032EA0404EB
:1003D000446042688C799C40A4B222434260C46865
:1003E0005A00954034EA0505C560C468CD795A00C5
:1003F00095402C43C4605B1C102BBFD3F0BC7047EE
:1004000089B24161704730B501688468421841681B
:1004100002EB5103C90703D54C4401E0491C08D144
:100420009A4218BF12F9011B01D10C3030BD12F8ED
:10043000015B002904F8015BF0D4491EF7D5EFE712
:1004400010B4002204883E4B98420ED0424A90429B
:100450000BD0B0F1804F08D03A4A904205D03A4ACA
:10046000904202D0394A904204D14FF68F72144024
:100470004A881443364A904207D0364A904204D004
:100480004FF6FF4214400A89144304804A68C2624E
:100490000A880285984202D02F4A904201D1897A77
:1004A00001860121818210BC7047C9B2002904D0A5
:1004B000018851F00101018004E002884FF6FE71CD
:1004C0000A400280704730B4002200220022038CD0
:1004D0004FF6FE7213400384058C8388048B4FF61D
:1004E0008F7214404FF6FC7214400A8814434FF682
:1004F000FD7215408A8915434A881543104A904277
:1005000002D0154A904213D14FF6F7721540CA89AE
:1005100015434FF6FB7215408A8815434FF6FF626C
:1005200013404FF6FF5213400A8A13434A8A13437B
:100530008380048389684163058430BC7047000070
:10054000000001400004004000080040000C004092
:10055000001000400014004000040140D2B2002A04
:1005600003D082891143818103E0828932EA01014B
:1005700081817047002200220022028A0A4080897D
:10058000014092B2002A04D089B2002901D0012092
:1005900000E00020C0B2704789B2C94301827047B1
:1005A000C9B2002904D00C490A681043086004E06D
:1005B00009490A6832EA000008607047C9B2002998
:1005C00004D006490A681043086004E003490A6839
:1005D00032EA000008607047303802404438024078
:1005E0001A4908431A4908607047002100210F2367
:1005F000C17800291FD01649096811F4E061D1F5CE
:10060000E061090AD1F10402DBB20B41417811FA31
:1006100002F281780B401A4312010E490378CA5442
:100620000121027812F01F0291400B4A007840111C
:1006300042F8201009E00121027812F01F029140D7
:10064000064A0078401142F8201070470000FA0571
:100650000CED00E000E400E000E100E080E100E0FB
:1006600080B53C48016851F4700101603A4908685E
:1006700050F0010008600020384A10600A683848CD
:1006800002400A603748384A1060086830F4802019
:10069000086000203549086000F005F85FF0006050
:1006A0003349086001BD82B0002001900020009015
:1006B0002949086850F480300860086810F4003058
:1006C00000900198401C01900098002803D10198E7
:1006D000B0F5A04FF1D10868800302D50120009049
:1006E00001E000200090009801282FD121480268E5
:1006F00052F0805202602048026852F44042026088
:10070000164802680260026852F400420260026801
:1007100052F4A0520260194A134B1A600A6852F050
:1007200080720A600A689201FCD540F20571144A91
:1007300011600168890889000160016851F00201B7
:100740000160016811F00C010829FAD102B070476C
:100750000000000088ED00E0003802400838024048
:10076000FFFFF6FE10300024043802400C3802402F
:1007700008ED00E040380240007000400854400797
:10078000003C02408088C005C00D704710B40022B4
:100790000022002200220A0040F66A1392B29A4216
:1007A0000B00DBB25B09DBB20A0092B212F01F024F
:1007B000012414FA02F2012B02D183891A4006E0C7
:1007C000022B02D1038A1A4001E0838A1A4089B2BF
:1007D000090A89B214FA01F100880140002A03D005
:1007E000002901D0012000E00020C0B210BC7047F9
:1007F00010B5104C40F225512000FFF7C7FF00282C
:1008000016D02000FFF7BEFF0B490C4A0B68D054EE
:100810000868105C0D2808D100200B68D054012016
:10082000074A10700020086002E00868401C086059
:1008300010BD000000440040500000201C000020BB
:100840005400002010B5074979441831064C7C4407
:10085000163404E00A68081D114488470146A14285
:10086000F8D110BD2C000000380000004EF6885171
:10087000CEF20001086840F470000860BFF34F8FAB
:10088000BFF36F8F4FF00170E1EE100A7047000068
:1008900077FBFFFFD40100002A00000000000020C9
:1008A0007047FEE7FEE7FEE7FEE7704770477047D8
:1008B0007047000000F00DF8002801D0FFF7C2FFDC
:1008C000AFF300800020AFF30080FFF7E6FC00F0FC
:1008D00002F80120704700F001B8000007463846D2
:1008E00000F002F8FBE7000080B5AFF30080024A99
:1008F00011001820ABBEFBE72600020005480146A8
:1009000003B4684680F30988AFF30080FFF7AEFFB9
:10091000FFF7D0FFA5EDF5FE0148804701480047ED
:1009200061060008FD080008FFF7FEBFFFF7FEBFE5
:10093000FFF7FEBFFFF7FEBFFFF7FEBFFFF7FEBFEB
:10094000FFF7FEBFFFF7FEBFFFF7FEBFFFF7FEBFDB
:10095000FFF7FEBFFFF7FEBFFFF7FEBFFFF7FEBFCB
:10096000FFF7FEBFFFF7FEBFFFF7FEBFFFF7FEBFBB
:10097000FFF7FEBFFFF7FEBFFFF7FEBFFFF7FEBFAB
:10098000FFF7FEBFFFF7FEBFFFF7FEBFFFF7FEBF9B
:10099000FFF7FEBFFFF7FEBFFFF7FEBFFFF7FEBF8B
:1009A000FFF7FEBFFFF7FEBFFFF7FEBFFFF7FEBF7B
:1009B000FFF7FEBFFFF7FEBFFFF7FEBFFFF7FEBF6B
:1009C000FFF7FEBFFFF7FEBFFFF7FEBFFFF7FEBF5B
:1009D000FFF7FEBFFFF7FEBFFFF7FEBFFFF7FEBF4B
:1009E000FFF7FEBFFFF7FEBFFFF7FEBFFFF7FEBF3B
:1009F000FFF7FEBFFFF7FEBFFFF7FEBFFFF7FEBF2B
:100A0000FFF7FEBFFFF7FEBFFFF7FEBFFFF7FEBF1A
:100A1000FFF7FEBFFFF7FEBFFFF7FEBFFFF7FEBF0A
:100A2000FFF7FEBFFFF7FEBFFFF7FEBFFFF7FEBFFA
:100A3000FFF7FEBFFFF7FEBFFFF7FEBFFFF7FEBFEA
:100A4000FFF7FEBFFFF7FEBFFFF7FEBFFFF7FEBFDA
:100A5000FFF7FEBFFFF7FEBFFFF7FEBFFFF7FEBFCA
:100A6000FFF7FEBFFFF7FEBF113F065B4F666D7CD1
:0D0A7000077F67777C395E79710880BD00D3
:04000005080008FDEA
:00000001FF
